{
  "_format": "hh-sol-artifact-1",
  "contractName": "MyEpicNFT",
  "sourceName": "contracts/MyEpicNFT.sol",
  "abi": [
    {
      "inputs": [],
      "stateMutability": "nonpayable",
      "type": "constructor"
    },
    {
      "anonymous": false,
      "inputs": [
        {
          "indexed": true,
          "internalType": "address",
          "name": "owner",
          "type": "address"
        },
        {
          "indexed": true,
          "internalType": "address",
          "name": "approved",
          "type": "address"
        },
        {
          "indexed": true,
          "internalType": "uint256",
          "name": "tokenId",
          "type": "uint256"
        }
      ],
      "name": "Approval",
      "type": "event"
    },
    {
      "anonymous": false,
      "inputs": [
        {
          "indexed": true,
          "internalType": "address",
          "name": "owner",
          "type": "address"
        },
        {
          "indexed": true,
          "internalType": "address",
          "name": "operator",
          "type": "address"
        },
        {
          "indexed": false,
          "internalType": "bool",
          "name": "approved",
          "type": "bool"
        }
      ],
      "name": "ApprovalForAll",
      "type": "event"
    },
    {
      "anonymous": false,
      "inputs": [
        {
          "indexed": false,
          "internalType": "address",
          "name": "sender",
          "type": "address"
        },
        {
          "indexed": false,
          "internalType": "uint256",
          "name": "tokenId",
          "type": "uint256"
        }
      ],
      "name": "NewEpicNFTMinted",
      "type": "event"
    },
    {
      "anonymous": false,
      "inputs": [
        {
          "indexed": true,
          "internalType": "address",
          "name": "from",
          "type": "address"
        },
        {
          "indexed": true,
          "internalType": "address",
          "name": "to",
          "type": "address"
        },
        {
          "indexed": true,
          "internalType": "uint256",
          "name": "tokenId",
          "type": "uint256"
        }
      ],
      "name": "Transfer",
      "type": "event"
    },
    {
      "inputs": [
        {
          "internalType": "address",
          "name": "to",
          "type": "address"
        },
        {
          "internalType": "uint256",
          "name": "tokenId",
          "type": "uint256"
        }
      ],
      "name": "approve",
      "outputs": [],
      "stateMutability": "nonpayable",
      "type": "function"
    },
    {
      "inputs": [
        {
          "internalType": "address",
          "name": "owner",
          "type": "address"
        }
      ],
      "name": "balanceOf",
      "outputs": [
        {
          "internalType": "uint256",
          "name": "",
          "type": "uint256"
        }
      ],
      "stateMutability": "view",
      "type": "function"
    },
    {
      "inputs": [
        {
          "internalType": "uint256",
          "name": "tokenId",
          "type": "uint256"
        }
      ],
      "name": "getApproved",
      "outputs": [
        {
          "internalType": "address",
          "name": "",
          "type": "address"
        }
      ],
      "stateMutability": "view",
      "type": "function"
    },
    {
      "inputs": [],
      "name": "getTotalNFTsMintedSoFar",
      "outputs": [
        {
          "internalType": "uint256",
          "name": "",
          "type": "uint256"
        }
      ],
      "stateMutability": "view",
      "type": "function"
    },
    {
      "inputs": [
        {
          "internalType": "address",
          "name": "owner",
          "type": "address"
        },
        {
          "internalType": "address",
          "name": "operator",
          "type": "address"
        }
      ],
      "name": "isApprovedForAll",
      "outputs": [
        {
          "internalType": "bool",
          "name": "",
          "type": "bool"
        }
      ],
      "stateMutability": "view",
      "type": "function"
    },
    {
      "inputs": [],
      "name": "makeAnEpicNFT",
      "outputs": [],
      "stateMutability": "nonpayable",
      "type": "function"
    },
    {
      "inputs": [],
      "name": "name",
      "outputs": [
        {
          "internalType": "string",
          "name": "",
          "type": "string"
        }
      ],
      "stateMutability": "view",
      "type": "function"
    },
    {
      "inputs": [
        {
          "internalType": "uint256",
          "name": "tokenId",
          "type": "uint256"
        }
      ],
      "name": "ownerOf",
      "outputs": [
        {
          "internalType": "address",
          "name": "",
          "type": "address"
        }
      ],
      "stateMutability": "view",
      "type": "function"
    },
    {
      "inputs": [
        {
          "internalType": "uint256",
          "name": "tokenId",
          "type": "uint256"
        }
      ],
      "name": "pickRandomColor",
      "outputs": [
        {
          "internalType": "string",
          "name": "",
          "type": "string"
        }
      ],
      "stateMutability": "view",
      "type": "function"
    },
    {
      "inputs": [
        {
          "internalType": "uint256",
          "name": "tokenId",
          "type": "uint256"
        }
      ],
      "name": "pickRandomFirstWord",
      "outputs": [
        {
          "internalType": "string",
          "name": "",
          "type": "string"
        }
      ],
      "stateMutability": "view",
      "type": "function"
    },
    {
      "inputs": [
        {
          "internalType": "uint256",
          "name": "tokenId",
          "type": "uint256"
        }
      ],
      "name": "pickRandomSecondWord",
      "outputs": [
        {
          "internalType": "string",
          "name": "",
          "type": "string"
        }
      ],
      "stateMutability": "view",
      "type": "function"
    },
    {
      "inputs": [
        {
          "internalType": "uint256",
          "name": "tokenId",
          "type": "uint256"
        }
      ],
      "name": "pickRandomThirdWord",
      "outputs": [
        {
          "internalType": "string",
          "name": "",
          "type": "string"
        }
      ],
      "stateMutability": "view",
      "type": "function"
    },
    {
      "inputs": [
        {
          "internalType": "address",
          "name": "from",
          "type": "address"
        },
        {
          "internalType": "address",
          "name": "to",
          "type": "address"
        },
        {
          "internalType": "uint256",
          "name": "tokenId",
          "type": "uint256"
        }
      ],
      "name": "safeTransferFrom",
      "outputs": [],
      "stateMutability": "nonpayable",
      "type": "function"
    },
    {
      "inputs": [
        {
          "internalType": "address",
          "name": "from",
          "type": "address"
        },
        {
          "internalType": "address",
          "name": "to",
          "type": "address"
        },
        {
          "internalType": "uint256",
          "name": "tokenId",
          "type": "uint256"
        },
        {
          "internalType": "bytes",
          "name": "_data",
          "type": "bytes"
        }
      ],
      "name": "safeTransferFrom",
      "outputs": [],
      "stateMutability": "nonpayable",
      "type": "function"
    },
    {
      "inputs": [
        {
          "internalType": "address",
          "name": "operator",
          "type": "address"
        },
        {
          "internalType": "bool",
          "name": "approved",
          "type": "bool"
        }
      ],
      "name": "setApprovalForAll",
      "outputs": [],
      "stateMutability": "nonpayable",
      "type": "function"
    },
    {
      "inputs": [
        {
          "internalType": "bytes4",
          "name": "interfaceId",
          "type": "bytes4"
        }
      ],
      "name": "supportsInterface",
      "outputs": [
        {
          "internalType": "bool",
          "name": "",
          "type": "bool"
        }
      ],
      "stateMutability": "view",
      "type": "function"
    },
    {
      "inputs": [],
      "name": "symbol",
      "outputs": [
        {
          "internalType": "string",
          "name": "",
          "type": "string"
        }
      ],
      "stateMutability": "view",
      "type": "function"
    },
    {
      "inputs": [
        {
          "internalType": "uint256",
          "name": "tokenId",
          "type": "uint256"
        }
      ],
      "name": "tokenURI",
      "outputs": [
        {
          "internalType": "string",
          "name": "",
          "type": "string"
        }
      ],
      "stateMutability": "view",
      "type": "function"
    },
    {
      "inputs": [
        {
          "internalType": "address",
          "name": "from",
          "type": "address"
        },
        {
          "internalType": "address",
          "name": "to",
          "type": "address"
        },
        {
          "internalType": "uint256",
          "name": "tokenId",
          "type": "uint256"
        }
      ],
      "name": "transferFrom",
      "outputs": [],
      "stateMutability": "nonpayable",
      "type": "function"
    }
  ],
  "bytecode": "0x608060405260405180610100016040528060d3815260200162004e2760d39139600890805190602001906200003692919062000e32565b5060405180608001604052806056815260200162004efa60569139600990805190602001906200006892919062000e32565b50604051806101e001604052806040518060400160405280600981526020017f506f69736f6e6f7573000000000000000000000000000000000000000000000081525081526020016040518060400160405280600581526020017f4e6f69737900000000000000000000000000000000000000000000000000000081525081526020016040518060400160405280600c81526020017f496e74656c6c6967656e7420000000000000000000000000000000000000000081525081526020016040518060400160405280600881526020017f536f6c697461727900000000000000000000000000000000000000000000000081525081526020016040518060400160405280600581526020017f446972747900000000000000000000000000000000000000000000000000000081525081526020016040518060400160405280600881526020017f467269656e646c7900000000000000000000000000000000000000000000000081525081526020016040518060400160405280600481526020017f536c6f770000000000000000000000000000000000000000000000000000000081525081526020016040518060400160405280600581526020017f436c65616e00000000000000000000000000000000000000000000000000000081525081526020016040518060400160405280600981526020017f416767726573697665000000000000000000000000000000000000000000000081525081526020016040518060400160405280600481526020017f466173740000000000000000000000000000000000000000000000000000000081525081526020016040518060400160405280600581526020017f50697a7a6100000000000000000000000000000000000000000000000000000081525081526020016040518060400160405280600781526020017f43757063616b650000000000000000000000000000000000000000000000000081525081526020016040518060400160405280600581526020017f437572727900000000000000000000000000000000000000000000000000000081525081526020016040518060400160405280600481526020017f57696c640000000000000000000000000000000000000000000000000000000081525081526020016040518060400160405280600681526020017f53706f6f6b790000000000000000000000000000000000000000000000000000815250815250600a90600f620003fa92919062000ec3565b50604051806101c001604052806040518060400160405280600481526020017f477275620000000000000000000000000000000000000000000000000000000081525081526020016040518060400160405280600481526020017f4b6565700000000000000000000000000000000000000000000000000000000081525081526020016040518060400160405280600481526020017f446965740000000000000000000000000000000000000000000000000000000081525081526020016040518060400160405280600481526020017f456174730000000000000000000000000000000000000000000000000000000081525081526020016040518060400160405280600781526020017f537570706f72740000000000000000000000000000000000000000000000000081525081526020016040518060400160405280600a81526020017f53757374656e616e63650000000000000000000000000000000000000000000081525081526020016040518060400160405280600481526020017f4d6573730000000000000000000000000000000000000000000000000000000081525081526020016040518060400160405280600481526020017f43686f770000000000000000000000000000000000000000000000000000000081525081526020016040518060400160405280600681526020017f466f64646572000000000000000000000000000000000000000000000000000081525081526020016040518060400160405280600f81526020017f4e6f75726973686d656e74466f6f64000000000000000000000000000000000081525081526020016040518060400160405280600481526020017f537570700000000000000000000000000000000000000000000000000000000081525081526020016040518060400160405280600681526020017f4e617275746f000000000000000000000000000000000000000000000000000081525081526020016040518060400160405280600481526020017f457069630000000000000000000000000000000000000000000000000000000081525081526020016040518060400160405280600681526020017f53616b7572610000000000000000000000000000000000000000000000000000815250815250600b90600e6200075192919062000f2a565b50604051806101e001604052806040518060400160405280600b81526020017f426577696c646572696e6700000000000000000000000000000000000000000081525081526020016040518060400160405280600b81526020017f436f6e666f756e64696e6700000000000000000000000000000000000000000081525081526020016040518060400160405280600a81526020017f5375727072697a696e670000000000000000000000000000000000000000000081525081526020016040518060400160405280600a81526020017f53747570656679696e670000000000000000000000000000000000000000000081525081526020016040518060400160405280600b81526020017f4173746f6e697368696e6700000000000000000000000000000000000000000081525081526020016040518060400160405280600881526020017f53686f636b696e6700000000000000000000000000000000000000000000000081525081526020016040518060400160405280600881526020017f5374756e6e696e6700000000000000000000000000000000000000000000000081525081526020016040518060400160405280600a81526020017f4173746f756e64696e670000000000000000000000000000000000000000000081525081526020016040518060400160405280600981526020017f53746172746c696e67000000000000000000000000000000000000000000000081525081526020016040518060400160405280600a81526020017f506572706c6578696e670000000000000000000000000000000000000000000081525081526020016040518060400160405280600781526020017f436869636b656e0000000000000000000000000000000000000000000000000081525081526020016040518060400160405280600881526020017f53616e647769636800000000000000000000000000000000000000000000000081525081526020016040518060400160405280600581526020017f53616c616400000000000000000000000000000000000000000000000000000081525081526020016040518060400160405280600581526020017f476161726100000000000000000000000000000000000000000000000000000081525081526020016040518060400160405280600681526020017f4d696e61746f0000000000000000000000000000000000000000000000000000815250815250600c90600f62000ae392919062000ec3565b506040518060c001604052806040518060400160405280600381526020017f726564000000000000000000000000000000000000000000000000000000000081525081526020016040518060400160405280600781526020017f233038433241380000000000000000000000000000000000000000000000000081525081526020016040518060400160405280600581526020017f626c61636b00000000000000000000000000000000000000000000000000000081525081526020016040518060400160405280600681526020017f79656c6c6f77000000000000000000000000000000000000000000000000000081525081526020016040518060400160405280600481526020017f626c75650000000000000000000000000000000000000000000000000000000081525081526020016040518060400160405280600581526020017f677265656e000000000000000000000000000000000000000000000000000000815250815250600d90600662000c6192919062000f91565b506000600e5534801562000c7457600080fd5b506040518060400160405280600981526020017f5371756172654e465400000000000000000000000000000000000000000000008152506040518060400160405280600681526020017f5351554152450000000000000000000000000000000000000000000000000000815250816000908051906020019062000cf992919062000e32565b50806001908051906020019062000d1292919062000e32565b50505062000d606040518060400160405280601e81526020017f54686973206973206d79204e465420636f6e74726163742e20576f616821000081525062000d6660201b6200128a1760201c565b620011b2565b62000e068160405160240162000d7d9190620010c6565b6040516020818303038152906040527f41304fac000000000000000000000000000000000000000000000000000000007bffffffffffffffffffffffffffffffffffffffffffffffffffffffff19166020820180517bffffffffffffffffffffffffffffffffffffffffffffffffffffffff838183161783525050505062000e0960201b60201c565b50565b60008151905060006a636f6e736f6c652e6c6f679050602083016000808483855afa5050505050565b82805462000e40906200113c565b90600052602060002090601f01602090048101928262000e64576000855562000eb0565b82601f1062000e7f57805160ff191683800117855562000eb0565b8280016001018555821562000eb0579182015b8281111562000eaf57825182559160200191906001019062000e92565b5b50905062000ebf919062000ff8565b5090565b82805482825590600052602060002090810192821562000f17579160200282015b8281111562000f1657825182908051906020019062000f0592919062000e32565b509160200191906001019062000ee4565b5b50905062000f26919062001017565b5090565b82805482825590600052602060002090810192821562000f7e579160200282015b8281111562000f7d57825182908051906020019062000f6c92919062000e32565b509160200191906001019062000f4b565b5b50905062000f8d919062001017565b5090565b82805482825590600052602060002090810192821562000fe5579160200282015b8281111562000fe457825182908051906020019062000fd392919062000e32565b509160200191906001019062000fb2565b5b50905062000ff4919062001017565b5090565b5b808211156200101357600081600090555060010162000ff9565b5090565b5b808211156200103b57600081816200103191906200103f565b5060010162001018565b5090565b5080546200104d906200113c565b6000825580601f1062001061575062001082565b601f01602090049060005260206000209081019062001081919062000ff8565b5b50565b60006200109282620010ea565b6200109e8185620010f5565b9350620010b081856020860162001106565b620010bb81620011a1565b840191505092915050565b60006020820190508181036000830152620010e2818462001085565b905092915050565b600081519050919050565b600082825260208201905092915050565b60005b838110156200112657808201518184015260208101905062001109565b8381111562001136576000848401525b50505050565b600060028204905060018216806200115557607f821691505b602082108114156200116c576200116b62001172565b5b50919050565b7f4e487b7100000000000000000000000000000000000000000000000000000000600052602260045260246000fd5b6000601f19601f8301169050919050565b613c6580620011c26000396000f3fe608060405234801561001057600080fd5b50600436106101215760003560e01c80636352211e116100ad578063b88d4fde11610071578063b88d4fde14610340578063c575757a1461035c578063c87b56dd1461038c578063de9d132f146103bc578063e985e9c5146103c657610121565b80636352211e1461027657806370a08231146102a657806395d89b41146102d6578063a22cb465146102f4578063b187301f1461031057610121565b8063095ea7b3116100f4578063095ea7b3146101c257806323b872dd146101de5780632de38d68146101fa57806342842e0e1461022a578063514dc8c61461024657610121565b806301ffc9a714610126578063060475901461015657806306fdde0314610174578063081812fc14610192575b600080fd5b610140600480360381019061013b91906126b6565b6103f6565b60405161014d9190612e1f565b60405180910390f35b61015e6104d8565b60405161016b919061309a565b60405180910390f35b61017c6104e2565b6040516101899190612e3a565b60405180910390f35b6101ac60048036038101906101a79190612708565b610574565b6040516101b99190612d8f565b60405180910390f35b6101dc60048036038101906101d7919061267a565b6105f9565b005b6101f860048036038101906101f39190612574565b610711565b005b610214600480360381019061020f9190612708565b610771565b6040516102219190612e3a565b60405180910390f35b610244600480360381019061023f9190612574565b61088f565b005b610260600480360381019061025b9190612708565b6108af565b60405161026d9190612e3a565b60405180910390f35b610290600480360381019061028b9190612708565b6109cd565b60405161029d9190612d8f565b60405180910390f35b6102c060048036038101906102bb919061250f565b610a7f565b6040516102cd919061309a565b60405180910390f35b6102de610b37565b6040516102eb9190612e3a565b60405180910390f35b61030e6004803603810190610309919061263e565b610bc9565b005b61032a60048036038101906103259190612708565b610bdf565b6040516103379190612e3a565b60405180910390f35b61035a600480360381019061035591906125c3565b610cfd565b005b61037660048036038101906103719190612708565b610d5f565b6040516103839190612e3a565b60405180910390f35b6103a660048036038101906103a19190612708565b610e7d565b6040516103b39190612e3a565b60405180910390f35b6103c4610fcf565b005b6103e060048036038101906103db9190612538565b6111f6565b6040516103ed9190612e1f565b60405180910390f35b60007f80ac58cd000000000000000000000000000000000000000000000000000000007bffffffffffffffffffffffffffffffffffffffffffffffffffffffff1916827bffffffffffffffffffffffffffffffffffffffffffffffffffffffff191614806104c157507f5b5e139f000000000000000000000000000000000000000000000000000000007bffffffffffffffffffffffffffffffffffffffffffffffffffffffff1916827bffffffffffffffffffffffffffffffffffffffffffffffffffffffff1916145b806104d157506104d082611323565b5b9050919050565b6000600e54905090565b6060600080546104f19061332e565b80601f016020809104026020016040519081016040528092919081815260200182805461051d9061332e565b801561056a5780601f1061053f5761010080835404028352916020019161056a565b820191906000526020600020905b81548152906001019060200180831161054d57829003601f168201915b5050505050905090565b600061057f8261138d565b6105be576040517f08c379a00000000000000000000000000000000000000000000000000000000081526004016105b59061301a565b60405180910390fd5b6004600083815260200190815260200160002060009054906101000a900473ffffffffffffffffffffffffffffffffffffffff169050919050565b6000610604826109cd565b90508073ffffffffffffffffffffffffffffffffffffffff168373ffffffffffffffffffffffffffffffffffffffff161415610675576040517f08c379a000000000000000000000000000000000000000000000000000000000815260040161066c9061305a565b60405180910390fd5b8073ffffffffffffffffffffffffffffffffffffffff166106946113f9565b73ffffffffffffffffffffffffffffffffffffffff1614806106c357506106c2816106bd6113f9565b6111f6565b5b610702576040517f08c379a00000000000000000000000000000000000000000000000000000000081526004016106f990612f5a565b60405180910390fd5b61070c8383611401565b505050565b61072261071c6113f9565b826114ba565b610761576040517f08c379a00000000000000000000000000000000000000000000000000000000081526004016107589061307a565b60405180910390fd5b61076c838383611598565b505050565b606060006107a5610781846117ff565b6040516020016107919190612d29565b6040516020818303038152906040526119ac565b9050600a80549050816107b891906133da565b9050600a81815481106107f4577f4e487b7100000000000000000000000000000000000000000000000000000000600052603260045260246000fd5b9060005260206000200180546108099061332e565b80601f01602080910402602001604051908101604052809291908181526020018280546108359061332e565b80156108825780601f1061085757610100808354040283529160200191610882565b820191906000526020600020905b81548152906001019060200180831161086557829003601f168201915b5050505050915050919050565b6108aa83838360405180602001604052806000815250610cfd565b505050565b606060006108e36108bf846117ff565b6040516020016108cf9190612d6d565b6040516020818303038152906040526119ac565b9050600d80549050816108f691906133da565b9050600d8181548110610932577f4e487b7100000000000000000000000000000000000000000000000000000000600052603260045260246000fd5b9060005260206000200180546109479061332e565b80601f01602080910402602001604051908101604052809291908181526020018280546109739061332e565b80156109c05780601f10610995576101008083540402835291602001916109c0565b820191906000526020600020905b8154815290600101906020018083116109a357829003601f168201915b5050505050915050919050565b6000806002600084815260200190815260200160002060009054906101000a900473ffffffffffffffffffffffffffffffffffffffff169050600073ffffffffffffffffffffffffffffffffffffffff168173ffffffffffffffffffffffffffffffffffffffff161415610a76576040517f08c379a0000000000000000000000000000000000000000000000000000000008152600401610a6d90612f9a565b60405180910390fd5b80915050919050565b60008073ffffffffffffffffffffffffffffffffffffffff168273ffffffffffffffffffffffffffffffffffffffff161415610af0576040517f08c379a0000000000000000000000000000000000000000000000000000000008152600401610ae790612f7a565b60405180910390fd5b600360008373ffffffffffffffffffffffffffffffffffffffff1673ffffffffffffffffffffffffffffffffffffffff168152602001908152602001600020549050919050565b606060018054610b469061332e565b80601f0160208091040260200160405190810160405280929190818152602001828054610b729061332e565b8015610bbf5780601f10610b9457610100808354040283529160200191610bbf565b820191906000526020600020905b815481529060010190602001808311610ba257829003601f168201915b5050505050905090565b610bdb610bd46113f9565b83836119df565b5050565b60606000610c13610bef846117ff565b604051602001610bff9190612cc2565b6040516020818303038152906040526119ac565b9050600b8054905081610c2691906133da565b9050600b8181548110610c62577f4e487b7100000000000000000000000000000000000000000000000000000000600052603260045260246000fd5b906000526020600020018054610c779061332e565b80601f0160208091040260200160405190810160405280929190818152602001828054610ca39061332e565b8015610cf05780601f10610cc557610100808354040283529160200191610cf0565b820191906000526020600020905b815481529060010190602001808311610cd357829003601f168201915b5050505050915050919050565b610d0e610d086113f9565b836114ba565b610d4d576040517f08c379a0000000000000000000000000000000000000000000000000000000008152600401610d449061307a565b60405180910390fd5b610d5984848484611b4c565b50505050565b60606000610d93610d6f846117ff565b604051602001610d7f9190612ca0565b6040516020818303038152906040526119ac565b9050600c8054905081610da691906133da565b9050600c8181548110610de2577f4e487b7100000000000000000000000000000000000000000000000000000000600052603260045260246000fd5b906000526020600020018054610df79061332e565b80601f0160208091040260200160405190810160405280929190818152602001828054610e239061332e565b8015610e705780601f10610e4557610100808354040283529160200191610e70565b820191906000526020600020905b815481529060010190602001808311610e5357829003601f168201915b5050505050915050919050565b6060610e888261138d565b610ec7576040517f08c379a0000000000000000000000000000000000000000000000000000000008152600401610ebe90612ffa565b60405180910390fd5b6000600660008481526020019081526020016000208054610ee79061332e565b80601f0160208091040260200160405190810160405280929190818152602001828054610f139061332e565b8015610f605780601f10610f3557610100808354040283529160200191610f60565b820191906000526020600020905b815481529060010190602001808311610f4357829003601f168201915b505050505090506000610f71611ba8565b9050600081511415610f87578192505050610fca565b600082511115610fbc578082604051602001610fa4929190612c02565b60405160208183030381529060405292505050610fca565b610fc584611bbf565b925050505b919050565b6000610fdb6007611c66565b90506000610fe882610771565b90506000610ff583610bdf565b9050600061100284610d5f565b9050600083838360405160200161101b93929190612c26565b60405160208183030381529060405290506000611037866108af565b905060006008826009856040516020016110549493929190612c57565b604051602081830303815290604052905060006110998461107484611c74565b604051602001611085929190612ce4565b604051602081830303815290604052611c74565b90506000816040516020016110ae9190612d4b565b60405160208183030381529060405290506110fd6040518060400160405280601581526020017f0a2d2d2d2d2d2d2d2d2d2d2d2d2d2d2d2d2d2d2d2d000000000000000000000081525061128a565b6111068161128a565b6111446040518060400160405280601581526020017f2d2d2d2d2d2d2d2d2d2d2d2d2d2d2d2d2d2d2d2d0a000000000000000000000081525061128a565b61114e338a611e32565b61117089604051806060016040528060358152602001613bfb60359139611e50565b61117a6007611ec4565b6001600e546111899190613163565b600e819055506111b2604051806060016040528060258152602001613b96602591398a33611eda565b7febb98688741ffa4c7589bf325de30cf7becb63de567842e1ccdb6cb949fdc82c338a6040516111e3929190612df6565b60405180910390a1505050505050505050565b6000600560008473ffffffffffffffffffffffffffffffffffffffff1673ffffffffffffffffffffffffffffffffffffffff16815260200190815260200160002060008373ffffffffffffffffffffffffffffffffffffffff1673ffffffffffffffffffffffffffffffffffffffff16815260200190815260200160002060009054906101000a900460ff16905092915050565b6113208160405160240161129e9190612e3a565b6040516020818303038152906040527f41304fac000000000000000000000000000000000000000000000000000000007bffffffffffffffffffffffffffffffffffffffffffffffffffffffff19166020820180517bffffffffffffffffffffffffffffffffffffffffffffffffffffffff8381831617835250505050611f79565b50565b60007f01ffc9a7000000000000000000000000000000000000000000000000000000007bffffffffffffffffffffffffffffffffffffffffffffffffffffffff1916827bffffffffffffffffffffffffffffffffffffffffffffffffffffffff1916149050919050565b60008073ffffffffffffffffffffffffffffffffffffffff166002600084815260200190815260200160002060009054906101000a900473ffffffffffffffffffffffffffffffffffffffff1673ffffffffffffffffffffffffffffffffffffffff1614159050919050565b600033905090565b816004600083815260200190815260200160002060006101000a81548173ffffffffffffffffffffffffffffffffffffffff021916908373ffffffffffffffffffffffffffffffffffffffff160217905550808273ffffffffffffffffffffffffffffffffffffffff16611474836109cd565b73ffffffffffffffffffffffffffffffffffffffff167f8c5be1e5ebec7d5bd14f71427d1e84f3dd0314c0f7b2291e5b200ac8c7c3b92560405160405180910390a45050565b60006114c58261138d565b611504576040517f08c379a00000000000000000000000000000000000000000000000000000000081526004016114fb90612f3a565b60405180910390fd5b600061150f836109cd565b90508073ffffffffffffffffffffffffffffffffffffffff168473ffffffffffffffffffffffffffffffffffffffff161480611551575061155081856111f6565b5b8061158f57508373ffffffffffffffffffffffffffffffffffffffff1661157784610574565b73ffffffffffffffffffffffffffffffffffffffff16145b91505092915050565b8273ffffffffffffffffffffffffffffffffffffffff166115b8826109cd565b73ffffffffffffffffffffffffffffffffffffffff161461160e576040517f08c379a000000000000000000000000000000000000000000000000000000000815260040161160590612eba565b60405180910390fd5b600073ffffffffffffffffffffffffffffffffffffffff168273ffffffffffffffffffffffffffffffffffffffff16141561167e576040517f08c379a000000000000000000000000000000000000000000000000000000000815260040161167590612efa565b60405180910390fd5b611689838383611fa2565b611694600082611401565b6001600360008573ffffffffffffffffffffffffffffffffffffffff1673ffffffffffffffffffffffffffffffffffffffff16815260200190815260200160002060008282546116e49190613244565b925050819055506001600360008473ffffffffffffffffffffffffffffffffffffffff1673ffffffffffffffffffffffffffffffffffffffff168152602001908152602001600020600082825461173b9190613163565b92505081905550816002600083815260200190815260200160002060006101000a81548173ffffffffffffffffffffffffffffffffffffffff021916908373ffffffffffffffffffffffffffffffffffffffff160217905550808273ffffffffffffffffffffffffffffffffffffffff168473ffffffffffffffffffffffffffffffffffffffff167fddf252ad1be2c89b69c2b068fc378daa952ba7f163c4a11628f55a4df523b3ef60405160405180910390a46117fa838383611fa7565b505050565b60606000821415611847576040518060400160405280600181526020017f300000000000000000000000000000000000000000000000000000000000000081525090506119a7565b600082905060005b6000821461187957808061186290613391565b915050600a8261187291906131b9565b915061184f565b60008167ffffffffffffffff8111156118bb577f4e487b7100000000000000000000000000000000000000000000000000000000600052604160045260246000fd5b6040519080825280601f01601f1916602001820160405280156118ed5781602001600182028036833780820191505090505b5090505b600085146119a0576001826119069190613244565b9150600a8561191591906133da565b60306119219190613163565b60f81b81838151811061195d577f4e487b7100000000000000000000000000000000000000000000000000000000600052603260045260246000fd5b60200101907effffffffffffffffffffffffffffffffffffffffffffffffffffffffffffff1916908160001a905350600a8561199991906131b9565b94506118f1565b8093505050505b919050565b6000816040516020016119bf9190612beb565b6040516020818303038152906040528051906020012060001c9050919050565b8173ffffffffffffffffffffffffffffffffffffffff168373ffffffffffffffffffffffffffffffffffffffff161415611a4e576040517f08c379a0000000000000000000000000000000000000000000000000000000008152600401611a4590612f1a565b60405180910390fd5b80600560008573ffffffffffffffffffffffffffffffffffffffff1673ffffffffffffffffffffffffffffffffffffffff16815260200190815260200160002060008473ffffffffffffffffffffffffffffffffffffffff1673ffffffffffffffffffffffffffffffffffffffff16815260200190815260200160002060006101000a81548160ff0219169083151502179055508173ffffffffffffffffffffffffffffffffffffffff168373ffffffffffffffffffffffffffffffffffffffff167f17307eab39ab6107e8899845ad3d59bd9653f200f220920489ca2b5937696c3183604051611b3f9190612e1f565b60405180910390a3505050565b611b57848484611598565b611b6384848484611fac565b611ba2576040517f08c379a0000000000000000000000000000000000000000000000000000000008152600401611b9990612e9a565b60405180910390fd5b50505050565b606060405180602001604052806000815250905090565b6060611bca8261138d565b611c09576040517f08c379a0000000000000000000000000000000000000000000000000000000008152600401611c009061303a565b60405180910390fd5b6000611c13611ba8565b90506000815111611c335760405180602001604052806000815250611c5e565b80611c3d846117ff565b604051602001611c4e929190612c02565b6040516020818303038152906040525b915050919050565b600081600001549050919050565b60606000825190506000811415611c9d5760405180602001604052806000815250915050611e2d565b60006003600283611cae9190613163565b611cb891906131b9565b6004611cc491906131ea565b90506000602082611cd59190613163565b67ffffffffffffffff811115611d14577f4e487b7100000000000000000000000000000000000000000000000000000000600052604160045260246000fd5b6040519080825280601f01601f191660200182016040528015611d465781602001600182028036833780820191505090505b5090506000604051806060016040528060408152602001613bbb604091399050600181016020830160005b86811015611dea5760038101905062ffffff818a015116603f8160121c168401518060081b905060ff603f83600c1c1686015116810190508060081b905060ff603f8360061c1686015116810190508060081b905060ff603f831686015116810190508060e01b90508084526004840193505050611d71565b506003860660018114611e045760028114611e1457611e1f565b613d3d60f01b6002830352611e1f565b603d60f81b60018303525b508484525050819450505050505b919050565b611e4c828260405180602001604052806000815250612143565b5050565b611e598261138d565b611e98576040517f08c379a0000000000000000000000000000000000000000000000000000000008152600401611e8f90612fba565b60405180910390fd5b80600660008481526020019081526020016000209080519060200190611ebf92919061239b565b505050565b6001816000016000828254019250508190555050565b611f74838383604051602401611ef293929190612e5c565b6040516020818303038152906040527fe3849f79000000000000000000000000000000000000000000000000000000007bffffffffffffffffffffffffffffffffffffffffffffffffffffffff19166020820180517bffffffffffffffffffffffffffffffffffffffffffffffffffffffff8381831617835250505050611f79565b505050565b60008151905060006a636f6e736f6c652e6c6f679050602083016000808483855afa5050505050565b505050565b505050565b6000611fcd8473ffffffffffffffffffffffffffffffffffffffff1661219e565b15612136578373ffffffffffffffffffffffffffffffffffffffff1663150b7a02611ff66113f9565b8786866040518563ffffffff1660e01b81526004016120189493929190612daa565b602060405180830381600087803b15801561203257600080fd5b505af192505050801561206357506040513d601f19601f8201168201806040525081019061206091906126df565b60015b6120e6573d8060008114612093576040519150601f19603f3d011682016040523d82523d6000602084013e612098565b606091505b506000815114156120de576040517f08c379a00000000000000000000000000000000000000000000000000000000081526004016120d590612e9a565b60405180910390fd5b805181602001fd5b63150b7a0260e01b7bffffffffffffffffffffffffffffffffffffffffffffffffffffffff1916817bffffffffffffffffffffffffffffffffffffffffffffffffffffffff19161491505061213b565b600190505b949350505050565b61214d83836121c1565b61215a6000848484611fac565b612199576040517f08c379a000000000000000000000000000000000000000000000000000000000815260040161219090612e9a565b60405180910390fd5b505050565b6000808273ffffffffffffffffffffffffffffffffffffffff163b119050919050565b600073ffffffffffffffffffffffffffffffffffffffff168273ffffffffffffffffffffffffffffffffffffffff161415612231576040517f08c379a000000000000000000000000000000000000000000000000000000000815260040161222890612fda565b60405180910390fd5b61223a8161138d565b1561227a576040517f08c379a000000000000000000000000000000000000000000000000000000000815260040161227190612eda565b60405180910390fd5b61228660008383611fa2565b6001600360008473ffffffffffffffffffffffffffffffffffffffff1673ffffffffffffffffffffffffffffffffffffffff16815260200190815260200160002060008282546122d69190613163565b92505081905550816002600083815260200190815260200160002060006101000a81548173ffffffffffffffffffffffffffffffffffffffff021916908373ffffffffffffffffffffffffffffffffffffffff160217905550808273ffffffffffffffffffffffffffffffffffffffff16600073ffffffffffffffffffffffffffffffffffffffff167fddf252ad1be2c89b69c2b068fc378daa952ba7f163c4a11628f55a4df523b3ef60405160405180910390a461239760008383611fa7565b5050565b8280546123a79061332e565b90600052602060002090601f0160209004810192826123c95760008555612410565b82601f106123e257805160ff1916838001178555612410565b82800160010185558215612410579182015b8281111561240f5782518255916020019190600101906123f4565b5b50905061241d9190612421565b5090565b5b8082111561243a576000816000905550600101612422565b5090565b600061245161244c846130da565b6130b5565b90508281526020810184848401111561246957600080fd5b6124748482856132ec565b509392505050565b60008135905061248b81613b39565b92915050565b6000813590506124a081613b50565b92915050565b6000813590506124b581613b67565b92915050565b6000815190506124ca81613b67565b92915050565b600082601f8301126124e157600080fd5b81356124f184826020860161243e565b91505092915050565b60008135905061250981613b7e565b92915050565b60006020828403121561252157600080fd5b600061252f8482850161247c565b91505092915050565b6000806040838503121561254b57600080fd5b60006125598582860161247c565b925050602061256a8582860161247c565b9150509250929050565b60008060006060848603121561258957600080fd5b60006125978682870161247c565b93505060206125a88682870161247c565b92505060406125b9868287016124fa565b9150509250925092565b600080600080608085870312156125d957600080fd5b60006125e78782880161247c565b94505060206125f88782880161247c565b9350506040612609878288016124fa565b925050606085013567ffffffffffffffff81111561262657600080fd5b612632878288016124d0565b91505092959194509250565b6000806040838503121561265157600080fd5b600061265f8582860161247c565b925050602061267085828601612491565b9150509250929050565b6000806040838503121561268d57600080fd5b600061269b8582860161247c565b92505060206126ac858286016124fa565b9150509250929050565b6000602082840312156126c857600080fd5b60006126d6848285016124a6565b91505092915050565b6000602082840312156126f157600080fd5b60006126ff848285016124bb565b91505092915050565b60006020828403121561271a57600080fd5b6000612728848285016124fa565b91505092915050565b61273a81613278565b82525050565b6127498161328a565b82525050565b600061275a82613120565b6127648185613136565b93506127748185602086016132fb565b61277d816134c7565b840191505092915050565b60006127938261312b565b61279d8185613147565b93506127ad8185602086016132fb565b6127b6816134c7565b840191505092915050565b60006127cc8261312b565b6127d68185613158565b93506127e68185602086016132fb565b80840191505092915050565b600081546127ff8161332e565b6128098186613158565b94506001821660008114612824576001811461283557612868565b60ff19831686528186019350612868565b61283e8561310b565b60005b8381101561286057815481890152600182019150602081019050612841565b838801955050505b50505092915050565b600061287e603283613147565b9150612889826134d8565b604082019050919050565b60006128a1602583613147565b91506128ac82613527565b604082019050919050565b60006128c4601c83613147565b91506128cf82613576565b602082019050919050565b60006128e7600a83613158565b91506128f28261359f565b600a82019050919050565b600061290a602483613147565b9150612915826135c8565b604082019050919050565b600061292d601983613147565b915061293882613617565b602082019050919050565b6000612950606383613158565b915061295b82613640565b606382019050919050565b6000612973600b83613158565b915061297e826136db565b600b82019050919050565b6000612996602c83613147565b91506129a182613704565b604082019050919050565b60006129b9600d83613158565b91506129c482613753565b600d82019050919050565b60006129dc603883613147565b91506129e78261377c565b604082019050919050565b60006129ff602a83613147565b9150612a0a826137cb565b604082019050919050565b6000612a22602983613147565b9150612a2d8261381a565b604082019050919050565b6000612a45602e83613147565b9150612a5082613869565b604082019050919050565b6000612a68600283613158565b9150612a73826138b8565b600282019050919050565b6000612a8b602083613147565b9150612a96826138e1565b602082019050919050565b6000612aae603183613147565b9150612ab98261390a565b604082019050919050565b6000612ad1602c83613147565b9150612adc82613959565b604082019050919050565b6000612af4602f83613147565b9150612aff826139a8565b604082019050919050565b6000612b17600a83613158565b9150612b22826139f7565b600a82019050919050565b6000612b3a602183613147565b9150612b4582613a20565b604082019050919050565b6000612b5d600a83613158565b9150612b6882613a6f565b600a82019050919050565b6000612b80601d83613158565b9150612b8b82613a98565b601d82019050919050565b6000612ba3603183613147565b9150612bae82613ac1565b604082019050919050565b6000612bc6600583613158565b9150612bd182613b10565b600582019050919050565b612be5816132e2565b82525050565b6000612bf782846127c1565b915081905092915050565b6000612c0e82856127c1565b9150612c1a82846127c1565b91508190509392505050565b6000612c3282866127c1565b9150612c3e82856127c1565b9150612c4a82846127c1565b9150819050949350505050565b6000612c6382876127f2565b9150612c6f82866127c1565b9150612c7b82856127f2565b9150612c8782846127c1565b9150612c92826129ac565b915081905095945050505050565b6000612cab826128da565b9150612cb782846127c1565b915081905092915050565b6000612ccd82612966565b9150612cd982846127c1565b915081905092915050565b6000612cef82612b0a565b9150612cfb82856127c1565b9150612d0682612943565b9150612d1282846127c1565b9150612d1d82612a5b565b91508190509392505050565b6000612d3482612b50565b9150612d4082846127c1565b915081905092915050565b6000612d5682612b73565b9150612d6282846127c1565b915081905092915050565b6000612d7882612bb9565b9150612d8482846127c1565b915081905092915050565b6000602082019050612da46000830184612731565b92915050565b6000608082019050612dbf6000830187612731565b612dcc6020830186612731565b612dd96040830185612bdc565b8181036060830152612deb818461274f565b905095945050505050565b6000604082019050612e0b6000830185612731565b612e186020830184612bdc565b9392505050565b6000602082019050612e346000830184612740565b92915050565b60006020820190508181036000830152612e548184612788565b905092915050565b60006060820190508181036000830152612e768186612788565b9050612e856020830185612bdc565b612e926040830184612731565b949350505050565b60006020820190508181036000830152612eb381612871565b9050919050565b60006020820190508181036000830152612ed381612894565b9050919050565b60006020820190508181036000830152612ef3816128b7565b9050919050565b60006020820190508181036000830152612f13816128fd565b9050919050565b60006020820190508181036000830152612f3381612920565b9050919050565b60006020820190508181036000830152612f5381612989565b9050919050565b60006020820190508181036000830152612f73816129cf565b9050919050565b60006020820190508181036000830152612f93816129f2565b9050919050565b60006020820190508181036000830152612fb381612a15565b9050919050565b60006020820190508181036000830152612fd381612a38565b9050919050565b60006020820190508181036000830152612ff381612a7e565b9050919050565b6000602082019050818103600083015261301381612aa1565b9050919050565b6000602082019050818103600083015261303381612ac4565b9050919050565b6000602082019050818103600083015261305381612ae7565b9050919050565b6000602082019050818103600083015261307381612b2d565b9050919050565b6000602082019050818103600083015261309381612b96565b9050919050565b60006020820190506130af6000830184612bdc565b92915050565b60006130bf6130d0565b90506130cb8282613360565b919050565b6000604051905090565b600067ffffffffffffffff8211156130f5576130f4613498565b5b6130fe826134c7565b9050602081019050919050565b60008190508160005260206000209050919050565b600081519050919050565b600081519050919050565b600082825260208201905092915050565b600082825260208201905092915050565b600081905092915050565b600061316e826132e2565b9150613179836132e2565b9250827fffffffffffffffffffffffffffffffffffffffffffffffffffffffffffffffff038211156131ae576131ad61340b565b5b828201905092915050565b60006131c4826132e2565b91506131cf836132e2565b9250826131df576131de61343a565b5b828204905092915050565b60006131f5826132e2565b9150613200836132e2565b9250817fffffffffffffffffffffffffffffffffffffffffffffffffffffffffffffffff04831182151516156132395761323861340b565b5b828202905092915050565b600061324f826132e2565b915061325a836132e2565b92508282101561326d5761326c61340b565b5b828203905092915050565b6000613283826132c2565b9050919050565b60008115159050919050565b60007fffffffff0000000000000000000000000000000000000000000000000000000082169050919050565b600073ffffffffffffffffffffffffffffffffffffffff82169050919050565b6000819050919050565b82818337600083830152505050565b60005b838110156133195780820151818401526020810190506132fe565b83811115613328576000848401525b50505050565b6000600282049050600182168061334657607f821691505b6020821081141561335a57613359613469565b5b50919050565b613369826134c7565b810181811067ffffffffffffffff8211171561338857613387613498565b5b80604052505050565b600061339c826132e2565b91507fffffffffffffffffffffffffffffffffffffffffffffffffffffffffffffffff8214156133cf576133ce61340b565b5b600182019050919050565b60006133e5826132e2565b91506133f0836132e2565b925082613400576133ff61343a565b5b828206905092915050565b7f4e487b7100000000000000000000000000000000000000000000000000000000600052601160045260246000fd5b7f4e487b7100000000000000000000000000000000000000000000000000000000600052601260045260246000fd5b7f4e487b7100000000000000000000000000000000000000000000000000000000600052602260045260246000fd5b7f4e487b7100000000000000000000000000000000000000000000000000000000600052604160045260246000fd5b6000601f19601f8301169050919050565b7f4552433732313a207472616e7366657220746f206e6f6e20455243373231526560008201527f63656976657220696d706c656d656e7465720000000000000000000000000000602082015250565b7f4552433732313a207472616e736665722066726f6d20696e636f72726563742060008201527f6f776e6572000000000000000000000000000000000000000000000000000000602082015250565b7f4552433732313a20746f6b656e20616c7265616479206d696e74656400000000600082015250565b7f54484952445f574f524400000000000000000000000000000000000000000000600082015250565b7f4552433732313a207472616e7366657220746f20746865207a65726f2061646460008201527f7265737300000000000000000000000000000000000000000000000000000000602082015250565b7f4552433732313a20617070726f766520746f2063616c6c657200000000000000600082015250565b7f222c20226465736372697074696f6e223a20224120686967686c79206163636c60008201527f61696d656420636f6c6c656374696f6e206f6620737175617265732e222c202260208201527f696d616765223a2022646174613a696d6167652f7376672b786d6c3b6261736560408201527f36342c0000000000000000000000000000000000000000000000000000000000606082015250565b7f5345434f4e445f574f5244000000000000000000000000000000000000000000600082015250565b7f4552433732313a206f70657261746f7220717565727920666f72206e6f6e657860008201527f697374656e7420746f6b656e0000000000000000000000000000000000000000602082015250565b7f3c2f746578743e3c2f7376673e00000000000000000000000000000000000000600082015250565b7f4552433732313a20617070726f76652063616c6c6572206973206e6f74206f7760008201527f6e6572206e6f7220617070726f76656420666f7220616c6c0000000000000000602082015250565b7f4552433732313a2062616c616e636520717565727920666f7220746865207a6560008201527f726f206164647265737300000000000000000000000000000000000000000000602082015250565b7f4552433732313a206f776e657220717565727920666f72206e6f6e657869737460008201527f656e7420746f6b656e0000000000000000000000000000000000000000000000602082015250565b7f45524337323155524953746f726167653a2055524920736574206f66206e6f6e60008201527f6578697374656e7420746f6b656e000000000000000000000000000000000000602082015250565b7f227d000000000000000000000000000000000000000000000000000000000000600082015250565b7f4552433732313a206d696e7420746f20746865207a65726f2061646472657373600082015250565b7f45524337323155524953746f726167653a2055524920717565727920666f722060008201527f6e6f6e6578697374656e7420746f6b656e000000000000000000000000000000602082015250565b7f4552433732313a20617070726f76656420717565727920666f72206e6f6e657860008201527f697374656e7420746f6b656e0000000000000000000000000000000000000000602082015250565b7f4552433732314d657461646174613a2055524920717565727920666f72206e6f60008201527f6e6578697374656e7420746f6b656e0000000000000000000000000000000000602082015250565b7f7b226e616d65223a202200000000000000000000000000000000000000000000600082015250565b7f4552433732313a20617070726f76616c20746f2063757272656e74206f776e6560008201527f7200000000000000000000000000000000000000000000000000000000000000602082015250565b7f46495253545f574f524400000000000000000000000000000000000000000000600082015250565b7f646174613a6170706c69636174696f6e2f6a736f6e3b6261736536342c000000600082015250565b7f4552433732313a207472616e736665722063616c6c6572206973206e6f74206f60008201527f776e6572206e6f7220617070726f766564000000000000000000000000000000602082015250565b7f434f4c4f52000000000000000000000000000000000000000000000000000000600082015250565b613b4281613278565b8114613b4d57600080fd5b50565b613b598161328a565b8114613b6457600080fd5b50565b613b7081613296565b8114613b7b57600080fd5b50565b613b87816132e2565b8114613b9257600080fd5b5056fe416e204e465420772f20494420257320686173206265656e206d696e74656420746f2025734142434445464748494a4b4c4d4e4f505152535455565758595a6162636465666768696a6b6c6d6e6f707172737475767778797a303132333435363738392b2f697066733a2f2f516d5245467a39553670763874645874724b615245466742686a43616964665a745067384a35427967795868725aa264697066735822122098c4960e9c6eb7bdb63f3816e4c2238cd4fd6d82fd02d867bbc6aa72d52e9d4364736f6c634300080100333c73766720786d6c6e733d27687474703a2f2f7777772e77332e6f72672f323030302f73766727207072657365727665417370656374526174696f3d27784d696e594d696e206d656574272076696577426f783d273020302033353020333530273e3c7374796c653e2e62617365207b2066696c6c3a2077686974653b20666f6e742d66616d696c793a2073657269663b20666f6e742d73697a653a20323470783b207d3c2f7374796c653e3c726563742077696474683d273130302527206865696768743d2731303025272066696c6c3d27272f3e3c7465787420783d273530252720793d273530252720636c6173733d27626173652720646f6d696e616e742d626173656c696e653d276d6964646c652720746578742d616e63686f723d276d6964646c65273e",
  "linkReferences": {},
  "deployedLinkReferences": {}
}